:0200000280007C
:10000000F8470720A1C4090099C4090099C4090050
:1000100099C4090099C4090099C4090000000000AE
:1000200000000000000000000000000099C409006A
:1000300099C409000000000099C409000184090066
:1000400099C4090099C4090099C4090099C4090018
:1000500099C4090099C4090099C4090099C4090008
:100060004983090099C4090000000000D9BC0900B7
:10007000F1BC090009BD090021BD09000000000014
:100080000000000099C4090099C4090099C409003E
:1000900099C4090099C4090099C4090099C40900C8
:1000A00099C409000000000099C409008583090073
:1000B000B1D3090099C40900DD83090099C409007E
:1000C00099C40900B983090099C4090099C40900B9
:1000D00099C4090099C4090099C4090099C4090088
:1000E00099C4090099C4090099C40900457509001B
:1000F00099C4090010B5054C237833B9044B13B1EA
:100100000448AFF300800123237010BDA41507201D
:10011000000000009CA40A00084B10B51BB1084960
:100120000848AFF300800848036803B910BD074BC7
:10013000002BFBD0BDE81040184700BF00000000B6
:10014000A81507209CA40A009CA40A000000000037
:1001500080B582B000AF78607B68072B31D801A2F0
:1001600052F823F0C1010800850108008D01080044
:10017000950108009D010800A5010800AD010800D7
:10018000B70108000020114B98471AE001200F4BDF
:10019000984716E000200E4B984712E010200C4BB9
:1001A00098470EE020200A4B98470AE03E210020A5
:1001B000084B984705E03E210120064B984700E098
:1001C00000BF00BF0837BD4680BD00BFB9BD0900F4
:1001D00025BE0900C5BE090080B582B000AF7860B9
:1001E0007B68072B26D801A252F823F00D020800E5
:1001F000110208001102080023020800230208006F
:10020000230208002302080023020800012312E051
:100210000B4B98470346002B14BF01230023DBB28E
:1002200009E0084B98470346002B14BF0123002325
:10023000DBB200E0002318460837BD4680BD00BF92
:10024000F1BD09003DBF090080B483B000AF786004
:100250007B68072B25D801A252F823F07D02080005
:1002600083020800890208008F0208009302080038
:10027000970208009B0208009F0208004FF4FA430F
:1002800010E04FF400430DE04FF400430AE0084B48
:1002900008E0084B06E0084B04E0074B02E0064B81
:1002A00000E0002318460C37BD4680BC704700BFF5
:1002B00000093D0000127A00001BB70080B582B033
:1002C00000AF0346FB7100BFFB791846054B98470A
:1002D000034683F00103DBB2002BF5D100BF0837E2
:1002E000BD4680BDD901080080B586B000AFF8607A
:1002F0007A603B600B46FB727B68002B07D13B6842
:10030000002B04D1FB684FF470021A6019E0FB7AED
:1003100018460E4B984702467B68B2FBF3F37B61AD
:100320007B693A6802FB03F37B613B68013B1A047B
:10033000074B13407A68D2B2134343F47C52FB68F4
:100340001A6000BF1837BD4680BD00BF49020800D3
:100350000000FF0780B582B000AF786039603B686D
:10036000002B08D1094B9847094A7B681B6843F06A
:100370000053936205E0064A7B681B6843F48033B0
:10038000D36100BF0837BD4680BD00BF55BF09001F
:1003900000060E4080B582B000AF78607B68002B0D
:1003A00003D1054B9847034602E0044B98470346A8
:1003B00018460837BD4680BD6DBF090085BF0900DE
:1003C00080B582B000AF0346FB71FB79033B042B81
:1003D00008D8FB791846064B9847FB791846054B19
:1003E000984700E000BF00BF0837BD4680BD00BF92
:1003F00051010800BD02080080B582B000AF7860EE
:1004000000BF7868044B98470346002BF9D00023BF
:1004100018460837BD4680BD9503080080B500AF7B
:100420000620044B984702461346DB009B1A5B00EC
:10043000184680BD4902080080B500AF024B9847BE
:1004400003465B08184680BD1D04080090B583B0C4
:1004500000AF104B9847034618460F4B98470620AD
:100460000E4B9847381D0E23012206210C4CA04745
:100470003B1D002118460B4B984700200A4B98471C
:1004800010200A4B98470A4B984700BF0C37BD46CF
:1004900090BD00BF39040800CDC60900C1030800A3
:1004A000E902080055030800F903080039BD0900F6
:1004B00049C5090080B584B000AFF860B9607A60C2
:1004C0007B681B0203F47062BB6813431946F8682B
:1004D000034B9847002318461037BD4680BD00BF28
:1004E000B500072080B584B000AF786039607B68C4
:1004F0001B6823F47063FB603B681B0203F47062AB
:10050000FB68134319467868024B984700BF1037C1
:10051000BD4680BDB500072080B483B000AF7860D1
:100520007B681B6803F470631B0A18460C37BD46D2
:1005300080BC704780B586B000AFF860B9607A6063
:10054000BB680E2B02D0BB680F2B02D14FF0FF33DC
:1005500020E0FB68114A934214BF01230023DBB261
:100560007B610F4B1B681A460E4B1A600D4B1A68C5
:100570007B681B0223F07F4323F0FF03B968C9B2F5
:100580000B4343F0B443194678699047FB689B6876
:1005900003F0060318461837BD4680BD000A0E401A
:1005A00008001000C015072080B483B000AF786049
:1005B0007B68DB6818460C37BD4680BC704700BFBF
:1005C00080B582B000AF78607868034B984700BF71
:1005D0000837BD4680BD00BF9DBF090080B582B011
:1005E00000AF78607B68054A934202D11820044B23
:1005F000984700BF0837BD4680BD00BF008000405F
:10060000C105080080B483B000AF78607B68082221
:100610001A607B6820221A607B6804221A6000BF7F
:100620000C37BD4680BC704780B584B000AF7860A1
:1006300039600023FB607B684FF0FF329A627B6871
:100640001B6A78680E4B984778680E4B98473B6852
:1006500059683B681B681A4678680B4B98470346F5
:10066000012B01D10123FB603B685B7A012B02D196
:100670007B6840221A60FB6818461037BD4680BD73
:1006800005070800050608008D06080080B487B03D
:1006900000AFF860B9607A6000237B61BB68174ADD
:1006A000934201D9012324E0BB685B007A68B2FB66
:1006B000F3F3043B3B6105E07B6901337B613B69FC
:1006C0005B083B613B69FF2B02D97B69062BF3D9A1
:1006D0000B4A3B6913603B69DAB23B691B029BB270
:1006E0001A437B691B0403F4E0231A43FB681A6175
:1006F000002318461C37BD4680BC7047801A060090
:10070000C415072080B483B000AF78607B68802276
:100710001A607B681B6B00BF0C37BD4680BC7047FE
:1007200080B487B000AFF860B9607A603B60BB68A6
:10073000B3F5402F0BD3174B7B61BB68A3F5402368
:100740001B0A7B82BB689BB2DBB23B820AE0124B86
:100750007B61BB68A3F500231B0A7B82BB689BB24D
:10076000DBB23B82FB68002B02D0FB687A691A601F
:100770007B68002B02D07B687A8A1A803B68002B4A
:1007800002D03B683A8A1A8000BF1C37BD4680BC45
:10079000704700BF000C0E40000A0E4080B487B0C6
:1007A00000AFF8607B600B467B8113463B81FB68A2
:1007B0000D4A934206D17B8903F500631A023B89F7
:1007C000134405E07B8903F540631A023B89134417
:1007D0007B617B68002B02D07B687A691A6000BF5E
:1007E0001C37BD4680BC7047000A0E4080B487B0FD
:1007F00000AFF860B9607A603B60FB6823F47F5318
:1008000023F03F037B61BB6823F47F5323F03F0356
:1008100003F57F533F333B617B68002B02D07B683D
:100820007A691A603B68002B02D03B683A691A600B
:1008300000BF1C37BD4680BC704700BF80B582B08A
:1008400000AF786039603A6879680648064B984787
:100850003A6879680548044B9847002318460837DA
:10086000BD4680BD000A0E40B5040800000C0E40D5
:1008700090B58FB000AFF860B9607A603B604A4BCA
:10088000BB6207F1140307F1160207F11800F968BB
:10089000464CA047BB691846454B98477862BB69F0
:1008A00006211846434B984771E0BB8AC3F5807216
:1008B0007B68934228BF13463B62B869F98A07F107
:1008C000100300223C4CA047BB8A5B429AB23B6AB1
:1008D0009BB2D31A9BB203F58073FB833B69194625
:1008E000BB8A1A46B86A354B9847BB8A1A46BB6A18
:1008F00013443A6AB9681846304B9847BB8A1A467F
:100900003B6A1344BA6AD018BB8A1A463B691A4438
:100910003B6A13441946FB8B1A46284B98473B69A0
:10092000FB6200233B630AE0FB6A1A1DFA621E4960
:100930003A6B51F822201A603B6B01333B633B6BEF
:100940003F2BF1D93B68002B07D0BB69FA8A032102
:1009500018461B4B9847786306E0BB69FA8A012169
:100960001846174B984778637B6B002B01D07B6B45
:1009700016E0BA683B6A1344BB607A683B6AD31AD4
:100980007B60FB8A01339BB2FB820023BB827B68C6
:10099000002B8AD1BB69796A1846064B9847002319
:1009A00018463C37BD4690BDC815072021070800F2
:1009B00019050800E50408009D07080011840A00D5
:1009C0003505080090B58BB000AFF860B9607A606B
:1009D0003B604023FB8407F1140307F11802B96858
:1009E000F8681C4CA0477B68002B02D0BA697B6872
:1009F0001A603B68002B02D07A693B681A60B969BB
:100A000007F1120207F11C000023134CA04779697B
:100A100007F11002002300200F4CA04710E0FB69F3
:100A20007A8A082118460D4B984738623B6A002B9A
:100A300001D03B6A09E07A8AFB8C13449BB27B822B
:100A40007A8A3B8A9A42EAD3002318462C37BD465D
:100A500090BD00BFED07080021070800350508001C
:100A600090B58BB000AFF860B9607A603B6040230E
:100A7000FB8407F1140307F11802B968F8681C4CED
:100A8000A0477B68002B02D0BA697B681A603B687C
:100A9000002B02D07A693B681A60B96907F112022B
:100AA00007F11C000023134CA047796907F11002DD
:100AB000002300200F4CA04710E0FB697A8A09212F
:100AC00018460D4B984738623B6A002B01D03B6AB1
:100AD00009E07A8AFB8C13449BB27B827A8A3B8A38
:100AE0009A42EAD3002318462C37BD4690BD00BF7A
:100AF000ED070800210708003505080080B582B021
:100B000000AF78607B68022B01D9112312E078686E
:100B10000A4B98470346012B01D100230AE07A686B
:100B20000B210748074B98470346002B01D10023B0
:100B300000E0102318460837BD4680BD490B080069
:100B4000000A0E403505080080B584B000AF78601B
:100B50007B68022B01D9112319E000220D210E48D8
:100B60000E4B98470346002B01D010230FE00A4894
:100B70000B4B9847F86001227B6802FA03F31A4690
:100B8000FB681340002B01D0012300E0002318462E
:100B90001037BD4680BD00BF000A0E403505080075
:100BA000A905080080B500AF0020024B9847034616
:100BB000184680BDFD0A080080B582B000AF124B18
:100BC00000221A600423FB71104B98470346FB7107
:100BD000FB79002B01D00E4B98470E4B98470346EC
:100BE000FB71FB79002B01D0094B98470A4B9847C2
:100BF0000346FB71FB79002B01D0054B984700237E
:100C000018460837BD4680BD001707201D0C080098
:100C1000A98A08003D0F09007D0A090080B400AFD1
:100C20003D4B14221A803C4B91225A803A4B0022B1
:100C30009A80394B42F21072DA80374B374A9A6009
:100C4000354B374ADA60344B344A1A61324B344AF6
:100C50005A61314B334A9A612F4B334ADA612E4B3A
:100C6000304A1A622C4B314A5A622B4B304A9A62F4
:100C7000294B2E4ADA62284B2E4A9A63264B2E4A7B
:100C8000DA63254B2D4A1A64234B2B4A5A64224BB4
:100C90002B4A9A64204B2B4ADA641F4B2A4A1A6566
:100CA0001D4B42F21072A3F854201B4B0022A3F8F4
:100CB0005620194B42F21072A3F85820164B00220E
:100CC000A3F85A20144B42F21072A3F85C20124B86
:100CD0000022A3F85E20104B0522A3F860200E4BE3
:100CE0001422A3F862200C4B1E22A3F864200A4BA6
:100CF0000522A3F86620084B1E22A3F86820064BA5
:100D00000522A3F86A20044B104A5A6300231846B0
:100D1000BD4680BC704700BF442007200080BB4414
:100D200000002F440000C843000048C3000096C3E1
:100D300000007A44000014420000C8410000A042B4
:100D40000080BB4300007A43000034420000164498
:100D500090B585B000AF0423FB730023BB81002353
:100D60007B8100233B810023FB8007F10C031946A4
:100D70001220634B9847BA89624B10469847024647
:100D8000614B62491046984703461A46604B1A6009
:100D900007F10C0319461320594B9847BA89594B50
:100DA000104698470246584B584910469847034604
:100DB0001A46584B1A6007F10C0319461420504B81
:100DC0009847BA894F4B1046984702464E4B4F49B9
:100DD0001046984703461A464F4B1A6007F10C031A
:100DE00019460720464B9847BA89464B1046984704
:100DF0000246454B49491046984703461A46484B18
:100E00001A6007F10C0319460B203D4B9847BA892D
:100E10003C4B104698470246424B43491046984780
:100E200003461A46414B1A6007F10C0319460C2081
:100E3000334B9847BA89334B104698470246394B93
:100E400039491046984703461A46394B1A6007F14C
:100E50000A0319460E202A4B98477B89A3F57A721C
:100E6000344B104698470246334B1A6007F108038B
:100E700019460F20224B98473B89A3F57A722D4BD8
:100E80001046984702462D4B1A60BB1D194610208C
:100E90001B4B9847FB88A3F57A72264B1046984760
:100EA0000246274B1A60214B1A68214B1968254BC3
:100EB0001046984703461C461F4B1A681F4B19687B
:100EC000204B1046984703461A46164B11462046BB
:100ED000984703461A460C4B4FF0804110469847FE
:100EE00003461A460F4B18491046984703461A46C0
:100EF000164B1A6000BF18461437BD4690BD00BFA0
:100F000001FA0800F97E0A0011810A000000204160
:100F1000F0160720F4160720F81607200000C84234
:100F2000FC160720957D0A0000007A443C2007202B
:100F3000E0160720017F0A00E4160720E8160720C4
:100F4000EC160720997D0A000000C841DC16072036
:100F500080B582B000AF9B4B98470346FB71FB798D
:100F6000002B01D0984B9847984B93F8DE31002B1B
:100F70003BD0974BB3F85830002B32D0954B1B68C1
:100F80000133944A1360934B00221A608F4B012265
:100F900083F8D221904B1B788F4A0133DB00134436
:100FA0001D229A80894B93F8DD310133DAB2874BE9
:100FB00083F8DD21894B01221A70894B1D221A709A
:100FC000854B1B781A46844B13442E229A70854B0E
:100FD00098470346FB71FB79002B06D07A4B984764
:100FE00003E07A4B042283F8D221784B93F89E32A7
:100FF000002B49D0754B93F89132012B04D1744BDF
:1010000093F84B30002B09D1704B93F89132002BA1
:1010100034D16F4B93F84B30002B2FD16B4B93F89F
:101020009232012B2FD0694B012283F892226A4B16
:101030001B78694A0133DB00134429229A80634BF1
:1010400093F89D320133DAB2604B83F89D22634BF3
:1010500001221A70624B29221A705F4B1B781A46C4
:101060005D4B13442E229A705E4B98470346FB71EA
:10107000FB79002B07D0544B984704E0534B0422D4
:1010800083F8922200E000BF504B93F8AE32002B61
:1010900049D04E4B93F8A132012B04D14C4B93F81D
:1010A0004B30002B09D1494B93F8A132002B34D19E
:1010B000474B93F84B30002B2FD1444B93F8A2327F
:1010C000012B2FD0414B012283F8A222424B1B78E7
:1010D000414A0133DB00134429229A803B4B93F8A9
:1010E000AD320133DAB2394B83F8AD223B4B0122EA
:1010F0001A703B4B2A221A70374B1B781A46364B14
:1011000013442E229A70374B98470346FB71FB79A4
:10111000002B07D02C4B984704E02C4B042283F87B
:10112000922200E000BF294B93F8BE32002B5CD026
:10113000264B93F8B132012B04D1254B93F84C3058
:10114000002B09D1214B93F8B132002B34D1204B25
:1011500093F84C30002B2FD11C4B93F8B232012B5B
:1011600042D01A4B012283F8B2221B4B1B781A4A39
:101170000133DB0013442B229A80144B93F8BD32C9
:101180000133DAB2114B83F8BD22144B01221A70DD
:10119000134B2B221A70104B1B781A460E4B13441C
:1011A0002E229A700F4B98470346FB71FB79002B58
:1011B0001AD0054B984717E0044B042283F8B2225B
:1011C00013E000BF510D0800A98A08000C1C07207D
:1011D0006C2107200017072014220720D9160720AA
:1011E000402007201929080000BF9E4B93F8CE32FB
:1011F000002B49D09B4B93F8C132012B04D19A4B61
:1012000093F84C30002B09D1964B93F8C132002B48
:1012100034D1954B93F84C30002B2FD1914B93F850
:10122000C232012B2FD08F4B012283F8C2228F4B69
:101230001B788E4A0133DB0013442C229A80894BA1
:1012400093F8CD320133DAB2864B83F8CD22884B46
:1012500001221A70874B2C221A70844B1B781A4675
:10126000824B13442E229A70834B98470346FB719E
:10127000FB79002B07D0814B984704E0794B04227F
:1012800083F8C22200E000BF764B93F80E32002BA9
:1012900032D0754B1B8B002B2AD0724B012283F866
:1012A0000222724B1B78714A0133DB001344202267
:1012B0009A806C4B93F80D320133DAB2694B83F8A4
:1012C0000D226B4B01221A706A4B20221A70674B59
:1012D0001B781A46654B13442E229A70664B98472A
:1012E0000346FB71FB79002B06D0644B984703E063
:1012F0005C4B042283F802225A4B93F81E32002BD7
:1013000032D0594B5B8B002B2AD0564B012283F8ED
:101310001222564B1B78554A0133DB00134421221D
:101320009A80504B93F81D320133DAB24D4B83F85B
:101330001D224F4B01221A704E4B21221A704B4B2B
:101340001B781A46494B13442E229A704A4B9847F1
:101350000346FB71FB79002B06D0484B984703E00E
:10136000404B042283F812223E4B93F82E32002B7E
:1013700033D03D4BB3F84430002B2AD0394B0122F7
:1013800083F82222394B1B78384A0133DB0013449F
:1013900022229A80334B93F82D320133DAB2314B4B
:1013A00083F82D22324B01221A70324B22221A70FE
:1013B0002E4B1B781A462D4B13442E229A702E4B1F
:1013C00098470346FB71FB79002B06D02B4B9847BF
:1013D00003E0244B042283F82222224B93F81E348C
:1013E000002B60D01F4B93F81234012B52D0244BAA
:1013F0001A6B244B24491046984703461846234B42
:101400001A68234B114698470346002B4BD0154BC7
:10141000012283F81224154B1B78144A0133DB0098
:10142000134441229A800F4B93F81D340133DAB2F2
:101430000C4B83F81D240E4B01221A700D4B4122D8
:101440001A700A4B1B781A46084B13442E229A70C6
:10145000094B98470346FB71FB79002B23D0074BC0
:10146000984720E00C1C07206C210720142207203D
:10147000D91607204020072019290800A98A08004A
:1014800044200720957D0A0000007A44DC160720DE
:10149000E5820A00994B93F81234012B03D1974B44
:1014A000042283F81224954B93F82E34002B48D055
:1014B000924B93F82234012B3AD0914B5A6B914BBB
:1014C00091491046984703461846904B1A68904B2E
:1014D000114698470346002B33D0884B012283F8EE
:1014E00022248C4B1B788B4A0133DB0013444222AD
:1014F0009A80824B93F82D340133DAB27F4B83F814
:101500002D24854B01221A70844B42221A70814B84
:101510001B781A467F4B13442E229A70804B9847B3
:101520000346FB71FB79002B0BD07E4B984708E0FC
:10153000724B93F82234012B03D1704B042283F8B1
:1015400022246E4B93F84E32002B43D06C4B9A689A
:101550006C4B6D491046984703461846724B1A6803
:10156000724B114698470346002B2AD0634B012249
:1015700083F84222674B1B78664A0133DB00134431
:1015800024229A805D4B93F84D320133DAB25B4BE3
:1015900083F84D22604B01221A70604B24221A708E
:1015A0005C4B1B781A465B4B13442E229A705C4BA3
:1015B00098470346FB71FB79002B0BD0594B98479A
:1015C00008E04E4B93F84232012B03D14B4B0422DF
:1015D00083F84222494B93F83E32002B43D0484BCC
:1015E000DA68484B484910469847034618464E4B20
:1015F0001A68474B114698470346002B2AD03F4BA9
:10160000012283F83222434B1B78424A0133DB002C
:10161000134423229A80394B93F83D320133DAB2D6
:10162000364B83F83D223C4B01221A703B4B232260
:101630001A70384B1B781A46364B13442E229A7078
:10164000374B98470346FB71FB79002B0BD0354B8A
:10165000984708E0294B93F83232012B03D1274BEE
:10166000042283F83222254B93F86E32002B6ED081
:1016700007222F4918202F4B9847FB79002B01D0C8
:10168000284B98471E4B1A691E4B1F491046984716
:1016900003461846284B1A68244B114698470346C0
:1016A000002B4BD0154B012283F86222194B1B787B
:1016B000184A0133DB00134426229A800F4B93F81B
:1016C0006D320133DAB20D4B83F86D22124B0122D9
:1016D0001A70124B26221A700E4B1B781A460D4BAD
:1016E00013442E229A700E4B98470346FB71FB79E8
:1016F000002B2CD00B4B984729E000BF0C1C072077
:1017000044200720957D0A0000007A44DC1607205B
:1017100021830A0014220720D91607204020072021
:1017200019290800A98A08003C200720E5820A0040
:101730006C9F0A00D5CB0900E0160720954B93F863
:101740006232012B03D1934B042283F86222914B26
:1017500093F85E32002B43D08F4B5A698F4B9049E0
:1017600010469847034618468E4B1A688E4B114612
:1017700098470346002B2AD0864B012283F8522239
:101780008A4B1B78894A0133DB00134425229A8057
:10179000804B93F85D320133DAB27E4B83F85D22E1
:1017A000834B01221A70834B26221A707F4B1B78C1
:1017B0001A467E4B13442E229A707F4B984703465D
:1017C000FB71FB79002B0BD07C4B984708E0714BE9
:1017D00093F85232012B03D16E4B042283F852222C
:1017E0006C4B9B7F002B43D06A4B5B7C012B03D15E
:1017F000734B1B78002B0AD1664B5B7C002B32D1DC
:101800006F4B1B7883F00103DBB2002B2BD0614BB5
:101810009B7C012B2BD05F4B01229A74634B1B786E
:10182000624A0133DB00134401229A80594B5B7FEB
:101830000133DAB2574B5A775D4B01221A705D4B78
:1018400001221A70594B1B781A46584B13442E220A
:101850009A70594B98470346FB71FB79002B06D0D1
:10186000564B984703E04B4B04229A7400E000BFAC
:10187000484B93F83E30002B45D0464B93F831301F
:10188000012B04D14E4B93F84630002B0CD1414B29
:1018900093F83130002B32D1494B93F8463083F026
:1018A0000103DBB2002B2AD03A4B012283F832200D
:1018B0003E4B1B783D4A0133DB00134403229A80E0
:1018C000344B93F83D300133DAB2324B83F83D208C
:1018D000374B01221A70374B03221A70334B1B7897
:1018E0001A46324B13442E229A70334B98470346C4
:1018F000FB71FB79002B06D0304B984703E0254B5A
:10190000042283F83220234B93F85E30002B5DD005
:10191000204B93F85130012B04D1294B93F84630DA
:10192000002B0CD11B4B93F85130002B4AD1244B88
:1019300093F8463083F00103DBB2002B42D0154B05
:10194000012283F85220194B1B78184A0133DB001F
:10195000134403229A800F4B93F85D300133DAB2BF
:101960000C4B83F85D20124B01221A70114B05229B
:101970001A700E4B1B781A460C4B13442E229A7089
:101980000D4B98470346FB71FB79002B1ED00B4B88
:1019900098471BE00C1C072044200720957D0A0077
:1019A00000007A44E016072021830A001422072051
:1019B000D91607204020072019290800A98A080005
:1019C0006C210720924B042283F85220904B93F80D
:1019D0004E30002B45D08E4B93F84130012B04D173
:1019E0008C4B93F84730002B0CD1894B93F8413046
:1019F000002B32D1874B93F8473083F00103DBB2E1
:101A0000002B2AD0824B012283F84220824B1B7884
:101A1000814A0133DB00134404229A807C4B93F803
:101A20004D300133DAB27A4B83F84D207B4B0122E3
:101A30001A707B4B04221A70774B1B781A46764B30
:101A400013442E229A70774B98470346FB71FB791B
:101A5000002B06D0744B984703E06D4B042283F8AB
:101A600042206B4B93F86E30002B45D0684B93F8B7
:101A70006130012B04D1674B93F84730002B0CD118
:101A8000634B93F86130002B32D1624B93F84730AF
:101A900083F00103DBB2002B2AD05D4B012283F8D7
:101AA00062205D4B1B785C4A0133DB001344062245
:101AB0009A80574B93F86D300133DAB2544B83F868
:101AC0006D20564B01221A70554B06221A70524B4C
:101AD0001B781A46504B13442E229A70514B98474C
:101AE0000346FB71FB79002B06D04F4B984703E070
:101AF000474B042283F86220454B93F8DE33002BDA
:101B000046D0444B93F84030002B04D0404B93F820
:101B1000D133012B0CD03F4B93F8403083F00103BD
:101B2000DBB2002B34D03A4B93F8D133002B2FD1BA
:101B3000374B93F8D233012B20D0354B022283F858
:101B4000E223334B012283F8D223334B1B78324AF2
:101B50000133DB0013443D229A80304B01221A707E
:101B60002F4B3D221A702C4B1B781A462A4B1344DC
:101B70002E229A702D4B01221A7006E0244B00226F
:101B800083F8DD23254B00221A70294B00221A709E
:101B90001F4B93F8EE33002B56D01E4B93F840307A
:101BA000002B04D01A4B93F8E133012B0CD0194BC6
:101BB00093F8403083F00103DBB2002B44D0144B88
:101BC00093F8E133002B3FD1114B93F8E233012B13
:101BD00030D00F4B93F8EE33002B32D00C4B022257
:101BE00083F8D2230A4B012283F8E2230B4B012214
:101BF0001A700B4B3E221A70074B1B781A46064B85
:101C000013442E229A70094B02221A7019E000BF69
:101C10000C1C07206C21072014220720D91607204E
:101C20004020072019290800A98A0800D419072094
:101C3000000107209E4B002283F8ED239D4B0022DC
:101C40001A709D4B01221A70994B93F85E31002B4C
:101C500049D0974B93F85231012B3BD0944BD3F89A
:101C60005421964B96491046984703461846954B83
:101C70001A68954B114698470346002B33D08C4B7E
:101C8000012283F85221914B1B78904A0133DB00EB
:101C9000134415229A80864B93F85D310133DAB2F2
:101CA000834B83F85D21834B01221A70884B1522E8
:101CB0001A70864B1B781A46844B13442E229A7056
:101CC000844B98470346FB71FB79002B0BD0824B6A
:101CD000984708E0764B93F85231012B03D1744BAF
:101CE000042283F85221724B93F86E31002B49D0B5
:101CF0006F4B93F86231012B3BD06D4BD3F86821C9
:101D00006E4B6F4910469847034618466D4B1A684C
:101D1000724B114698470346002B33D0644B012287
:101D200083F86221694B1B78684A0133DB00134456
:101D300016229A805E4B93F86D310133DAB25C4B18
:101D400083F86D215B4B01221A70614B16221A70C9
:101D50005E4B1B781A465D4B13442E229A705D4BE6
:101D600098470346FB71FB79002B0BD05A4B9847E1
:101D700008E04F4B93F86231012B03D14C4B042206
:101D800083F862214A4B93F87E31002B49D0484BAF
:101D900093F87231012B3BD0454BD3F87421474B5C
:101DA000474910469847034618464D4B1A68464B1C
:101DB000114698470346002B33D03D4B012283F850
:101DC0007221424B1B78414A0133DB001344172236
:101DD0009A80374B93F87D310133DAB2344B83F874
:101DE0007D21344B01221A70394B17221A70374B60
:101DF0001B781A46354B13442E229A70354B984760
:101E00000346FB71FB79002B0BD0334B984708E05E
:101E1000274B93F87231012B03D1254B042283F811
:101E20007221234B93F88E31002B64D0204B93F812
:101E30008231012B56D01E4BD3F888211F4B2049ED
:101E40001046984703461846254B1A68234B1146FF
:101E500098470346002B4ED0154B012283F8822170
:101E60001A4B1B78194A0133DB00134418229A805D
:101E70000F4B93F88D310133DAB20D4B83F88D217E
:101E80000C4B01221A70124B18221A700F4B1B7840
:101E90001A460E4B13442E229A700E4B9847034657
:101EA000FB71FB79002B26D00B4B984723E000BF3A
:101EB0000C1C0720D916072000010720957D0A0079
:101EC00000007A44E4160720E5820A001422072065
:101ED0004020072019290800A98A080021830A0048
:101EE000E8160720984B93F88231012B03D1964BCB
:101EF000042283F88221944B93F87E32002B49D040
:101F0000914BD3F87422914B914910469847034660
:101F10001846904B1A68904B114698470346002B81
:101F20002FD0894B93F87232012B2AD0864B012295
:101F300083F87222894B1B78884A0133DB001344F3
:101F400027229A80804B93F87D320133DAB27E4BA0
:101F500083F87D22824B01221A70824B27221A704D
:101F60007E4B1B781A467D4B13442E229A707E4B73
:101F700098470346FB71FB79002B0BD07B4B9847AE
:101F800008E0714B93F87232012B03D16E4B04229F
:101F900083F872226C4B93F88E32002B48D0744B2E
:101FA000DA6A6A4B6A491046984703461846694BF5
:101FB0001A68704B114698470346002B2FD0624B8E
:101FC00093F88232012B2AD05F4B012283F88222C0
:101FD000624B1B78614A0133DB00134428229A804C
:101FE000594B93F88D320133DAB2574B83F88D2277
:101FF0005B4B01221A705B4B28221A70574B1B78DF
:102000001A46564B13442E229A70574B9847034654
:10201000FB71FB79002B0BD0544B984708E04A4BDF
:1020200093F88232012B03D1474B042283F882229A
:10203000454B93F8FE30002B45D0434BD3F8F420AA
:102040004D4B1968444B104698470346002B2AD045
:102050003D4B012283F8F220404B1B783F4A01336D
:10206000DB0013440F229A80374B93F8FD30013385
:10207000DAB2354B83F8FD20394B01221A70394B07
:102080000F221A70354B1B781A46344B13442E22FC
:102090009A70354B98470346FB71FB79002B12D0A1
:1020A000324B98470FE0284B93F8F230012B0AD1BE
:1020B000254B042283F8F220234B002283F8FD20D5
:1020C000274B00221A70204B93F80E31002B65D05D
:1020D0001D4BD3F80821284B1968264B104698470A
:1020E0000346002B4AD0184B93F80231012B55D0F0
:1020F000154B012283F80221184B1B78174A013334
:10210000DB00134410229A800F4B93F80D310133FA
:10211000DAB20D4B83F80D21114B01221A70114BCD
:1021200010221A700D4B1B781A460C4B13442E22AA
:102130009A700D4B98470346FB71FB79002B2DD00D
:102140000A4B98472AE000BF0C1C0720957D0A0027
:1021500000007A44EC160720E5820A0014220720CA
:10216000D91607204020072019290800A98A08004D
:102170004420072021830A00F01607209E4B93F885
:102180000231012B0AD19C4B042283F802219A4B85
:10219000002283F80D21994B00221A70964B93F878
:1021A0003E31002B49D0964B9A6C964B1968964B52
:1021B000104698470346002B2FD08F4B93F83231AF
:1021C000012B3AD08C4B012283F832218F4B1B78A4
:1021D0008E4A0133DB00134413229A80864B93F816
:1021E0003D310133DAB2844B83F83D21834B012228
:1021F0001A70874B13221A70844B1B781A46834B34
:1022000013442E229A70834B98470346FB71FB7947
:10221000002B12D0804B98470FE0774B93F8323168
:10222000012B0AD1744B042283F83221724B002215
:1022300083F83D21714B00221A706F4B93F84E3199
:10224000002B49D06E4BDA6C6E4B1968734B1046FD
:1022500098470346002B2FD0674B93F84231012B50
:102260003AD0654B012283F84221684B1B78674ABC
:102270000133DB00134414229A805F4B93F84D31F5
:102280000133DAB25C4B83F84D215C4B01221A70AA
:102290005F4B14221A705D4B1B781A465B4B13443C
:1022A0002E229A705B4B98470346FB71FB79002BFB
:1022B00012D0594B98470FE04F4B93F84231012B06
:1022C0000AD14D4B042283F842214B4B002283F864
:1022D0004D214A4B00221A70474B93F81E31002BB8
:1022E0004AD0454BD3F814214D4B1968464B104644
:1022F00098470346002B2FD03F4B93F81231012B08
:102300003AD03D4B012283F81221404B1B783F4AC3
:102310000133DB00134411229A80374B93F81D31AF
:102320000133DAB2344B83F81D21344B01221A7089
:10233000374B11221A70354B1B781A46334B134416
:102340002E229A70334B98470346FB71FB79002B82
:1023500012D0314B98470FE0274B93F81231012BE5
:102360000AD1254B042283F81221234B002283F843
:102370001D21224B00221A701F4B93F82E31002B87
:1023800060D01D4BD3F82821254B1968234B1046EC
:1023900098470346002B45D0174B93F82231012B69
:1023A00050D0154B012283F82221184B1B78174A75
:1023B0000133DB00134412229A800F4B93F82D3126
:1023C0000133DAB20C4B83F82D210C4B01221A7029
:1023D0000F4B12221A700D4B1B781A460B4B1344ED
:1023E0002E229A700B4B98470346FB71FB79002B0A
:1023F00028D0094B984725E00C1C0720D916072048
:1024000044200720F8160720E5820A00142207203E
:102410004020072019290800A98A080021830A0002
:10242000F4160720AC4B93F82231012B0AD1AA4BAA
:10243000042283F82221A84B002283F82D21A74BE8
:1024400000221A70A44B93F88E30002B48D0A44B76
:10245000B3F90220A34B10469847A34B1A68A34B2D
:10246000114698470346002B2AD09B4B012283F844
:1024700082209F4B1B789E4A0133DB0013440822C5
:102480009A80954B93F88D300133DAB2924B83F8F2
:102490008D20924B01221A70964B08221A70944B91
:1024A0001B781A46924B13442E229A70924B9847EF
:1024B0000346FB71FB79002B12D0904B98470FE03D
:1024C000854B93F88230012B0AD1834B042283F889
:1024D0008220814B002283F88D20804B00221A70CD
:1024E0007D4B93F87E30002B48D07D4BB3F9002014
:1024F0007C4B104698477C4B1A68814B1146984795
:102500000346002B2AD0744B012283F87220784BAB
:102510001B78774A0133DB00134407229A806E4B05
:1025200093F87D300133DAB26B4B83F87D206B4B2F
:1025300001221A706F4B07221A706D4B1B781A46D6
:102540006B4B13442E229A706B4B98470346FB71DA
:10255000FB79002B12D0694B98470FE05E4B93F844
:102560007230012B0AD15C4B042283F872205A4B43
:10257000002283F87D20594B00221A70564B93F8A5
:102580009E30002B0AD1544B93F8AE30002B05D16E
:10259000514B93F8BE30002B00F00081594B0022C4
:1025A0001A705848584B98470346FB71FB79002B2B
:1025B00001D0524B9847534B1B780A2B49D00B2B19
:1025C00000F0A480092B40F0E9804E4B1B78424A72
:1025D0001B011344023301221A703F4B042283F87B
:1025E000A2203D4B042283F8B220414B1B781846B1
:1025F000444B1B7899B23E4A431CDB0013440A4605
:102600009A80404B1B7834491A010A440D321278E3
:102610000132D1B2304A1B0113440D330A461A70FD
:102620002E4B01221A70374B1A78324B1A70304BEE
:102630001B781A462E4B13442E229A702E4B984725
:102640000346FB71FB79002B00F0A3802B4B9847CE
:102650009FE02C4B1B78204A1B01134402330122BC
:102660001A701D4B042283F892201B4B042283F81E
:10267000B2201F4B1B781846224B1B7899B21C4A7C
:10268000431CDB0013440A469A801E4B1B781249F8
:102690001A010A440D3212780132D1B20E4A1B01DE
:1026A00013440D330A461A700C4B01221A70154B55
:1026B0001A78104B1A700E4B1B781A460C4B1344A9
:1026C0002E229A700C4B98470346FB71FB79002B26
:1026D00061D00A4B98475EE00C1C0720D9160720F2
:1026E00044200720017F0A00FC160720E5820A002B
:1026F000142207204020072019290800A98A080071
:1027000021830A00D81607209D2D0800754B1B78E1
:10271000754A1B011344023301221A70724B0422C2
:1027200083F89220704B042283F8A2206F4B1B7811
:1027300018466C4B1B7899B26C4A431CDB0013445F
:102740000A469A80674B1B7867491A010A440D3282
:1027500012780132D1B2644A1B0113440D330A4688
:102760001A70634B01221A705E4B1A78614B1A7013
:102770005E4B1B781A465D4B13442E229A705E4BBB
:1027800098470346FB71FB79002B06D05B4B9847BB
:1027900003E000BF02E000BF00E000BF584B1B7821
:1027A000002B00F09980504B93F8CE30002B0AD1CB
:1027B0004D4B93F8DE30002B05D14B4B93F8EE30A8
:1027C000002B00F089804F4BB3F842301A464E4B35
:1027D0001B689A420CD04D4B00221A604C4B1B6870
:1027E00001334B4A13604B4B1B680133494A13605A
:1027F000464B1B68282B32D93B4B93F8C230012B38
:102800002DD0394B012283F8C220384B1B78374A30
:102810000133DB0013440C229A80334B93F8CD3004
:102820000133DAB2304B83F8CD202F4B042283F8EA
:10283000C2202F4B01221A702E4B0C221A702B4BE8
:102840001B781A46294B13442D229A702A4B98471D
:102850000346FB71FB79002B01D0284B98472C4B8A
:102860001B68022B32D9204B93F8E230012B2DD07C
:102870001D4B012283F8E2201C4B1B781B4A0133BD
:10288000DB0013440E229A80174B93F8ED3001338E
:10289000DAB2154B83F8ED20134B042283F8E220C3
:1028A000134B01221A70134B0E221A700F4B1B7818
:1028B0001A460E4B13442D229A700F4B984703462D
:1028C000FB71FB79002B01D00C4B98470D4BB3F8F3
:1028D00042301A460C4B1A60002318460837BD4692
:1028E00080BD00BFD81607200C1C0720142207202B
:1028F000D91607204020072019290800A98A0800B6
:10290000411907206C210720C8160720CC16072084
:10291000D0160720D416072080B400AF0A4B1B78CE
:10292000002B0CD0094B1B78092B08D8074B012230
:102930005A70064B1B780133DAB2044B1A7000232D
:102940001846BD4680BC7047D916072014220720C0
:1029500080B400AF0A4B1B78002B0CD0094B1B78BE
:10296000092B08D8074B01225A70064B1B780133FC
:10297000DAB2044B1A7000231846BD4680BC70477B
:10298000D91607204C24072080B485B000AFBA6068
:102990007B600346FB730B46BB73FB7B104A1B013A
:1029A00013440133BA7B1A70FB7B0D4A1B0113449D
:1029B00008337A681A60FB7B094A1B01134404330D
:1029C000BA681A60FB7B064A1B0113440C333A7E3B
:1029D0001A70002318461437BD4680BC704700BFEC
:1029E0000C1C072080B584B000AF03460A46FB717B
:1029F0001346BB710023FB73FB79002B59D0FB7985
:102A0000422B56D8FB793D2B05D0FB793E2B02D0CB
:102A1000FB793C2B14D1FB792C4A1B0113440E3358
:102A200001221A70FB79294A1B0113440233022246
:102A30001A70FB79254A1B0113440D3300221A70CA
:102A4000234B1B78002B36D0FB79204A1B01134403
:102A5000FA791A70BB79002B15D0FB791B4A1B0140
:102A600013440E3301221A70FB79184A1B011344D8
:102A7000023302221A70FB79144A1B0113440D33EE
:102A800000221A7017E0FB79104A1B0113440E3321
:102A900000221A70FB790D4A1B01134402330422F1
:102AA0001A70FB79094A1B0113440D3300221A7076
:102AB00001E00423FB73FB7B002B01D0054B9847FF
:102AC000FB7B18461037BD4680BD00BF0C1C07209D
:102AD000B8090720A98A080080B485B000AF034672
:102AE000FB710023FB73FB79002B0CD0FB79422B8D
:102AF00009D8FB79084A1B011344023302221A70D9
:102B00000023FB7301E00423FB73FB7B184614379F
:102B1000BD4680BC704700BF0C1C072080B500AFCD
:102B2000204B93F8CE33002B39D01F4B9B8B012BBE
:102B300028D11E4BB3F90030002B23D1194B0122B1
:102B400083F8C2231A4B1B78194A0133DB00134464
:102B50003C229A80134B93F8CD330133DAB2114BF8
:102B600083F8CD23134B01221A70134B3C221A70A9
:102B70000F4B1B781A460E4B13442F229A700F4BA3
:102B8000984707E0074B042283F8C223054B002235
:102B900083F8CD23044B9B8B1AB2044B1A8000BFE1
:102BA000184680BD0C1C07206C210720DA16072070
:102BB0004C240720D916072040200720512908005F
:102BC00080B584B000AF03463960FB710023FB730E
:102BD000FB79002B1CD0FB79422B19D8FB79124AC8
:102BE0001B01134402331B78012B07D0FB790E4ADB
:102BF0001B01134402331B78032B03D13B680122D2
:102C00001A7002E03B6800221A700023FB7301E097
:102C10000423FB73FB7B002B01D0044B9847FB7B09
:102C200018461037BD4680BD0C1C0720A98A080035
:102C300080B584B000AF03460A46FB711346BB71F2
:102C40000023FB73FB79002B63D0FB79422B60D808
:102C5000FB79364A1B0113440E331B78002B55D0E9
:102C6000BB79002B39D0FB79304A1B011344023366
:102C700001221A702E4B1B78FA7991B22C4A01333B
:102C8000DB0013440A469A80FB7928491A010A445A
:102C90000D3212780132D1B2244A1B0113440D3394
:102CA0000A461A70234B01221A70234AFB791370CB
:102CB000FB793C2B07D11E4B1B781A461C4B134447
:102CC0002D229A7006E01A4B1B781A46184B1344B3
:102CD0002E229A70194B984718E0FB79134A1B0172
:102CE000134402331B78012B10D1FB790F4A1B01CF
:102CF0001344023304221A70FB790C4A1B0113445B
:102D00000D3300221A700B4B00221A700023FB7344
:102D100001E00423FB73FB7B002B01D0084B984799
:102D2000002318461037BD4680BD00BF0C1C07208D
:102D300014220720D916072040200720192908004F
:102D4000A98A080080B483B000AF0023FB710F4B49
:102D50001B8801339AB20D4B1A800D4B00221A606A
:102D60000C4B1B6801330B4A1360084B1B88142B58
:102D700005D9094B00221A60044B00221A80002357
:102D800018460C37BD4680BC704700BF04170720AB
:102D9000D0160720CC160720D416072080B483B0A5
:102DA00000AF78603B4B1B881A461346DB00134488
:102DB000394A128F1344394A82FB03129210DB17EF
:102DC000D31A9AB2334B1A80354B1B78032B5BD83E
:102DD00001A252F823F000BFE92D08001F2E0800C1
:102DE000E92D08004B2E08002A4B1B88322B0AD9EC
:102DF000284B1B88B3F5FA6F05D27B680A221A703C
:102E0000274B01221A70234B1B88B3F5FA6F36D972
:102E10007B680B221A70224B03221A702FE01D4B85
:102E20001B88B3F5FA6F05D97B680B221A701C4B0F
:102E300003221A70174B1B88312B22D87B6809227A
:102E40001A70174B02221A701BE0124B1B88322B90
:102E50000AD9104B1B88B3F5FA6F05D27B680A229A
:102E60001A700F4B01221A700A4B1B88312B0AD89B
:102E70007B6809221A700A4B02221A7003E000BF15
:102E800002E000BF00E000BF002318460C37BD463B
:102E900080BC7047061707206C21072067666666AE
:102EA0000817072080B584B000AF0346FB710023EC
:102EB000FB73FB79043B0C2B00F2A88001A252F8B3
:102EC00023F000BFF92E0800932F08000D300800F2
:102ED0000D3008000D3008000D3008000D300800DE
:102EE000632F08000D300800AF2F08000D300800D8
:102EF000F32F0800BD2F08000720994B9847034681
:102F0000FB7340F24C410220964B98474FF461719D
:102F10000120944B984701211A20934B9847934BDB
:102F20001B78012B15D115208D4B98470346FB7359
:102F30008F4B1B78012B0CD18E4B984740F6AC5031
:102F40008D4B984701208D4B98478D4905208D4B1F
:102F500098478D4B1A788D4B1A708B4B02221A7042
:102F600054E0894B1B78002B4FD107207C4B9847AE
:102F70000346FB73854B1B781A46854B9B5C1846B2
:102F8000774B98470346FB73804B1A787E4B1A7039
:102F90003BE0804B00221A6000211A20724B9847B8
:102FA00011206F4B9847784B00221A702EE07A4B15
:102FB00000221A80744B00221A7027E00520684B0B
:102FC00098470346FB734FF47A710220654B98478C
:102FD0004FF47A710120634B9847704B61221A803D
:102FE0006E4B1B8818466E4B9847674B0C221A7025
:102FF0000CE06A4B42221A80684B1B881846684BCB
:103000009847614B0C221A7000E000BF5E4B1B78A2
:10301000152B00F2A28501A252F823F05B3B0800B9
:103020005B3B0800753008002F3108009D34080014
:10303000D1340800ED340800213508003D35080082
:10304000633508007F350800B3350800CF35080028
:103050000F3608004138080075380800D33A0800D8
:103060005B3B0800173B08005B3B08005B3B08002C
:103070005B3B0800FB79013B072B4CD801A252F8BF
:1030800023F000BFA5300800AD300800173108005C
:103090001731080017310800CB300800173108003D
:1030A000F13008003F4B01221A703EE03D4B1B7887
:1030B000002B33D0344B1A78344B1A70324B032226
:1030C0001A70384B00221A7028E0334B00221A8005
:1030D0000520234B98470346FB73FB7B002B20D135
:1030E000294B1A78294B1A70274B10221A7018E0B6
:1030F000294B00221A800620194B98470346FB7380
:10310000FB7B002B10D1204B1A78204B1A701E4BE2
:1031100012221A7008E000BF00F020BD00BF00F0CE
:103120001DBD00BF00F01ABD00BF00F017BDFB7948
:10313000013B072B00F2768101A252F823F000BF79
:1031400025340800A931080025340800253408007A
:1031500025340800D933080025340800FF3308005F
:10316000C5AF090059AE0900E52908000A1B072070
:1031700037190720B9AD0900C1AE09003590080024
:1031800000009642A98F0800091707200A17072098
:10319000040107201C1707200E170720121707200D
:1031A000C1B209000B170720A14B1B78012B4BD193
:1031B0000023BB814223BB81BB8918469D4B9847A6
:1031C0004FF4FA7102209C4B98474FF47A7101201A
:1031D000994B9847994BB3F900309AB2013292B2A9
:1031E00011B2964A1180B3F5966F28DD944B0022F8
:1031F0001A80924B00221A80924B98470520924BDE
:1032000098470346FB731320904B98470346FB7384
:1032100051208F4B98470346FB73FB7B002B0ED14D
:1032200000211A208B4B98478B4B1A788B4B1A70C6
:10323000894B0C221A70884B1A78884B1A7000211F
:103240001A20844B9847EFE07D4BB3F900309AB2D7
:10325000013292B211B27A4A1180B3F5967F40F3EF
:10326000E380734B1B78012B0DD1754B00221A8024
:103270004FF4FA710220704B98474FF47A71012095
:103280006D4B984771E06F4B9847754B98476C4B67
:1032900000221A804FF47A710220674B984740F25F
:1032A0004C410120644B98476E4B44221A806D4B71
:1032B0001B8818465F4B98476B4B1B78012B54D1EA
:1032C0004FF4167102205C4B984740F24C410120AC
:1032D000594B9847654B984700211A205D4B9847FA
:1032E000604B46221A805F4B1B881846514B98470B
:1032F0005F4B98474FF47A605E4B984701205E4BD6
:1033000098475E4905205E4B984702205D4B9847E1
:1033100003205C4B98475C4B9847002102205B4B95
:1033200098475B4B984764205A4B98474FF47A5123
:103330000120564B9847C820564B98474FF4FA51F6
:103340000120524B98474FF41670524B984741F268
:10335000883101204D4B98474FF448704D4B9847AA
:1033600040F6C4110120494B98473E4B42221A8037
:103370003C4B1B8818462F4B98474FF47A7102201C
:103380002D4B98474FF47A7101202B4B984705201D
:103390002D4B98470346FB7313202C4B984703464D
:1033A000FB730420294B98475120294B984703462B
:1033B000FB73FB7B002B37D101211A20254B98474B
:1033C000254B1A78254B1A70234B0C221A70224B6E
:1033D0001A78224B1A7027E0194B00221A80052018
:1033E000194B98470346FB73FB7B002B1ED11A4BEE
:1033F0001A781A4B1A70184B10221A7016E0104BDC
:1034000000221A800620104B98470346FB73FB7B73
:10341000002B41D1104B1A78104B1A700E4B122210
:103420001A7039E000BF99E300BF97E300BF95E34E
:103430000A1B0720C1B2090059AE09001017072066
:103440000E17072099B20900C5AF090001AE0900A7
:1034500015B70800E5290800091707200A170720F3
:1034600051B1090012170720B51B072055AF0900FD
:10347000B9AD0900C1AE0900359008000000A042B6
:10348000A98F0800E1AD09007DB10900A96E09000E
:103490008D6C0900A93E090000BF5FE3FB79012B99
:1034A00002D0022B04D012E09C4B01221A700EE0D5
:1034B0009A4B1B78002B09D0994B1A78994B1A70AC
:1034C000974B05221A70954B00221A7000BF45E3F6
:1034D000FB79022B04D0032B04D0012B04D004E091
:1034E00000BF3BE300BF39E300BF37E3FB79012BAB
:1034F00002D0022B04D012E0884B01221A700EE099
:10350000864B1B78002B09D0854B1A78854B1A7097
:10351000834B07221A70814B00221A7000BF1DE3F3
:10352000FB79022B04D0032B04D0012B04D004E040
:1035300000BF13E300BF11E300BF0FE3FB79012BD2
:1035400002D0022B0BD00BE0754B1A78754B1A701A
:10355000734B09221A70714B00221A7000E000BFF1
:10356000FCE2FB79022B04D0032B04D0012B04D006
:1035700004E000BFF2E200BFF0E200BFEEE2FB7940
:10358000012B02D0022B04D012E0644B01221A70EE
:103590000EE0624B1B78002B09D0614B1A78614B0F
:1035A0001A705F4B0B221A705C4B00221A7000BF1E
:1035B000D4E2FB79022B04D0032B04D0012B04D0DE
:1035C00004E000BFCAE200BFC8E200BFC6E2FB7968
:1035D000002B01D0022B19E0534BB3F900309BB202
:1035E00001339BB21AB2504B1A80504B1B880133E7
:1035F0009AB24E4B1A804E4B00221A80484B1A78D2
:10360000484B1A70464B0D221A7000BFA6E2FB7998
:10361000032B00F20D8101A252F823F02D36080091
:10362000313808006D360800833608003E4BB3F988
:1036300000309BB201339BB21AB23B4B1A803B4B1A
:103640001B8801339AB2394B1A80384B1B882A2BBE
:1036500003D11320374B9847ECE0344B1B882E2BBB
:1036600040F0E8801320344B9847E3E02E4BB3F949
:103670000030962B40F3E08001211A202F4B984711
:10368000DAE02F4B01221A702E4B00221A60264BD3
:10369000B3F900309AB22B4B1A802A4B16229A703B
:1036A000214BB3F900309AB2274B1A80274B1B7875
:1036B000012B40F09880264B1B68B3F5C87F00F0C3
:1036C0008F80B3F5C87F05D8C82B7FD0B3F5967F20
:1036D0005FD088E0B3F5FA7F3ED0B3F5487F40F085
:1036E0008280114BB3F90030372B04DC0E4BB3F959
:1036F00000302C2B0DDC174B1B680133154A13606F
:10370000144B1B68032B08DD01211A200B4B984733
:1037100003E0104B00221A6065E064E00B170720FD
:10372000091707200A17072022170720201707204C
:103730000C170720E1AD090001AE0900312C08008B
:1037400034190720241707202817072033180720CB
:103750003418072014170720994BB3F900304B2B6E
:1037600004DC974BB3F900303E2B0DDC954B1B6806
:103770000133944A1360934B1B68032B08DD01212E
:103780001A20914B984703E08E4B00221A602AE0E2
:1037900029E08B4BB3F900307A2B04DC884BB3F96A
:1037A00000306D2B0DDC874B1B680133854A13609D
:1037B000844B1B68032B08DD01211A20824B98479C
:1037C00003E0804B00221A600DE00CE07C4BB3F963
:1037D0000030BE2B06DD01211A207B4B984701E00B
:1037E00000BF00E000BF0620784B98470346FB73FC
:1037F000774B00221A80042276493720764B98476F
:10380000022276494920744B9847754B1B68013357
:10381000734A1360FB7B002B10D1724B1A78724BEA
:103820001A70704B0E221A70654B00221A8005E048
:1038300000BF93E100BF91E100BF8FE100BF8DE1C8
:10384000FB79002B01D0022B13E05D4BB3F9003064
:103850009BB201339BB21AB2594B1A80634B0022C0
:103860001A80604B1A78604B1A705E4B0F221A70E8
:1038700000BF73E1FB79032B00F2238101A252F810
:1038800023F000BF95380800C33A0800D538080077
:10389000EB3808004A4BB3F900309BB201339BB2BE
:1038A0001AB2474B1A804A4B1B8801339AB2484BD5
:1038B0001A80474B1B882A2B03D113204C4B984767
:1038C00001E1434B1B882E2B40F0FD801320494B18
:1038D0009847F8E03A4BB3F90030962B40F3F58067
:1038E00001211A20384B9847EFE0434B01221A7010
:1038F000384B00221A60324BB3F900309AB2354B84
:103900001A80344B15229A702D4BB3F900309AB2BD
:10391000324B1A80394B1B78012B40F0AD80384B6D
:103920001B68B3F5C87F00F0A480B3F5C87F06D844
:10393000C82B00F08680B3F5967F65D09CE0B3F588
:10394000FA7F20D0B3F5487F40F096801C4BB3F946
:103950000030372B04DC1A4BB3F900302C2B0DDC74
:10396000284B1B680133274A1360264B1B68032B27
:1039700008DD01211A20144B984703E0214B002257
:103980001A6079E078E00E4BB3F900304B2B04DC81
:103990000B4BB3F900303E2B0DDC1A4B1B68013387
:1039A000184A1360174B1B68032B08DD01211A20EE
:1039B000054B984703E0134B00221A605CE05BE084
:1039C0002217072014170720312C0800C5AF090063
:1039D0002017072024170720D5CB09002817072018
:1039E0001C170720091707200A1707200C170720A4
:1039F000E1AD090001AE0900341907203318072092
:103A00003418072018170720574BB3F900307A2BCA
:103A100004DC554BB3F900306D2B0DDC534B1B68A8
:103A20000133524A1360514B1B68032B08DD0121FF
:103A30001A204F4B984703E04C4B00221A601BE0C2
:103A40001AE0494BB3F90030BE2B14DD494B9847BF
:103A50000420494B98473220484B98470420484B54
:103A600098473220454B984701211A20404B9847F0
:103A700001E000BF00E000BF0520424B984703462D
:103A8000FB73414B00221A80042240493720404BEF
:103A9000984702223F4949203D4B98473E4B1B68BF
:103AA00001333D4A1360FB7B002B10D13B4B1A784E
:103AB0003B4B1A702C4B00221A80384B0C221A7088
:103AC00005E000BF4AE000BF48E000BF46E000BF9D
:103AD00044E0FB79042B0BD0072B00D01AE0052023
:103AE000284B98470346FB732C4B11221A7011E0A8
:103AF0000720244B98470346FB73284B1A78284B22
:103B00001A70264B02221A7013201B4B984703464B
:103B1000FB7300BF22E0FB79042B0BD0092B00D0F4
:103B20001AE00620174B98470346FB731B4B1322E2
:103B30001A7011E00720134B98470346FB73174B8D
:103B40001A78174B1A7013200B4B98470346FB73D8
:103B5000124B02221A7000BF00E000BF002318467B
:103B60001037BD4680BD00BF221707201817072059
:103B7000312C080041B00900E1AD0900A93E09005F
:103B800001AE0900C5AF0900201707202417072040
:103B9000D5CB0900281707201C1707200917072075
:103BA0000A17072080B485B000AF78600023FB605F
:103BB00061E0354AFB6832F823309BB21A467B68D5
:103BC0009A420BD1304AFB689B0013445B889BB23E
:103BD0001A462E4B1A602D4B1B684FE02A4AFB6891
:103BE00032F823309BB21A467B689A4240D2FB6877
:103BF0000133254A32F823309BB21A467B689A4239
:103C000036D9FB680133204A32F823309BB219467B
:103C10001D4AFB6832F823309BB2CA1AFB68013395
:103C200019499B000B445B889BB218461649FB68F8
:103C30009B000B445B889BB2C31A92FBF3F37B811E
:103C4000B7F90A301049FA6831F8222092B21146C9
:103C50007A68521A02FB03F20B49FB689B000B4483
:103C60005B889BB21344094A1360084B1B6805E04C
:103C7000FB680133FB60FB68312B9ADD1846143773
:103C8000BD4680BC704700BF1C010720B420072040
:103C900090B585B000AF0346FB800023FB60A1E038
:103CA000544AFB689B0013445B881BB2B7F906209B
:103CB0009A420BD14F4AFB6832F823301AB24E4B6E
:103CC0001046984702464D4B1A6088E0494AFB6807
:103CD0009B0013445B881BB2B7F906209A425BDD58
:103CE000FB680133434A9B0013445B881BB2B7F95E
:103CF00006209A4250DAFB6801333E4A32F82330FC
:103D00001BB219463B4AFB6832F823301BB2CB1A70
:103D1000642202FB03F2FB68013336499B000B442B
:103D20005B881BB218463349FB689B000B445B88D9
:103D30001BB2C31A92FBF3F22F4B1046984703466F
:103D4000BB60B7F906202B49FB689B000B445B88DE
:103D50001BB2D21A284B104698470246284BB96826
:103D60001046984703461A46264B2749104698475F
:103D700003461C461F4AFB6832F823301AB21E4B1A
:103D8000104698470246214B114620469847034665
:103D90001A461A4B1A6022E0164B5B881BB2B7F921
:103DA00006209A4209DA134B1B881AB2124B1046AE
:103DB00098470246114B1A6011E00E4BB3F866307B
:103DC0001BB2B7F906209A4209DD0A4BB3F86430FA
:103DD0001AB2094B104698470246084B1A60FB6816
:103DE0000133FB60FB68192B7FF75AAF00BF143714
:103DF000BD4690BDE4010720017F0A00B0200720E6
:103E0000A97F0A0011810A000000C842997D0A00BA
:103E100090B585B000AF0346FB800023FB60A1E0B6
:103E2000544AFB689B0013445B881BB2B7F9062019
:103E30009A420BD14F4AFB6832F823301AB24E4BEC
:103E40001046984702464D4B1A608FE0494AFB687E
:103E50009B0013445B881BB2B7F906209A425BDDD6
:103E6000FB680133434A9B0013445B881BB2B7F9DC
:103E700006209A4250DAFB6801333E4A32F823307A
:103E80001BB219463B4AFB6832F823301BB2CB1AEF
:103E9000642202FB03F2FB68013336499B000B44AA
:103EA0005B881BB218463349FB689B000B445B8858
:103EB0001BB2C31A92FBF3F22F4B104698470346EE
:103EC000BB60B7F906202B49FB689B000B445B885D
:103ED0001BB2D21A284B104698470246284BB968A5
:103EE0001046984703461A46264B274910469847DE
:103EF00003461C461F4AFB6832F823301AB21E4B99
:103F0000104698470246214B1146204698470346E3
:103F10001A461A4B1A6029E0164B5B881BB2B7F998
:103F200006209A4209DA134B1B881AB2124B10462C
:103F300098470246114B1A6011E00E4BB3F86630F9
:103F40001BB2B7F906209A4209DD0A4BB3F8643078
:103F50001AB2094B104698470246084B1A60FB6894
:103F60000133FB60FB68192B7FF75AAF00BF143792
:103F7000BD4690BD4C020720017F0A002C17072088
:103F8000A97F0A0011810A000000C842997D0A0039
:103F900080B584B000AF0346FB800023FB606FE078
:103FA0003B4AFB689B0013445B881BB2B7F90620B1
:103FB0009A420BD1364AFB6832F823301AB2354B9D
:103FC000104698470246344B1A605CE0304AFB6862
:103FD0009B0013445B881BB2B7F906209A424CDD64
:103FE000FB6801332A4A9B0013445B881BB2B7F974
:103FF00006209A4241DAFB680133254A32F8233021
:104000001BB21946224AFB6832F823301BB2CB1A86
:10401000642202FB03F2FB6801331D499B000B4441
:104020005B881BB218461A49FB689B000B445B88EF
:104030001BB2C31A92FBF3F37B81B7F90A20B7F9DD
:1040400006101348FB689B0003445B881BB2CB1A25
:1040500003FB02F3114A82FB03125211DB17D31A3E
:104060000B49FA6831F8222012B21A44094B104663
:1040700098470246084B1A6005E0FB680133FB6075
:10408000FB681A2B8CDD00BF1037BD4680BD00BF1A
:10409000EC020720017F0A00301707201F85EB5133
:1040A00080B584B000AF0346FB800023FB606FE067
:1040B0003B4AFB689B0013445B881BB2B7F90620A0
:1040C0009A420BD1364AFB6832F823301AB2354B8C
:1040D000104698470246344B1A605CE0304AFB6851
:1040E0009B0013445B881BB2B7F906209A424CDD53
:1040F000FB6801332A4A9B0013445B881BB2B7F963
:1041000006209A4241DAFB680133254A32F823300F
:104110001BB21946224AFB6832F823301BB2CB1A75
:10412000642202FB03F2FB6801331D499B000B4430
:104130005B881BB218461A49FB689B000B445B88DE
:104140001BB2C31A92FBF3F37B81B7F90A20B7F9CC
:1041500006101348FB689B0003445B881BB2CB1A14
:1041600003FB02F3114A82FB03125211DB17D31A2D
:104170000B49FA6831F8222012B21A44094B104652
:1041800098470246084B1A6005E0FB680133FB6064
:10419000FB681A2B8CDD00BF1037BD4680BD00BF09
:1041A00058030720017F0A00341707201F85EB51B1
:1041B00090B587B000AF78604FF000033B617B683B
:1041C0003B614FF00003FB6000237B618FE04C4AB2
:1041D0007B6932F823309BB21A464A4B1046984707
:1041E0000246494B3969104698470346002B0CD0CC
:1041F000434A7B699B0013445B889AB2434B104649
:1042000098470246424B1A606EE03D4A7B6932F89D
:1042100023309BB21A463B4B1046984702463D4B13
:104220003969104698470346002B5DD07B690133FE
:10423000334A32F823309BB21A46324B1046984725
:104240000246354B3969104698470346002B4BD040
:104250007B6901332A4A9B0013445B889BB2194651
:10426000274A7B699B0013445B889BB2CA1A7B690F
:104270000133234931F823309BB2184620497B692A
:1042800031F823309BB2C31A92FBF3F21D4B104658
:1042900098470346FB601A4A7B6932F823309BB289
:1042A0001A46184B1046984702461C4B114638696F
:1042B000984703461A461A4BF96810469847034632
:1042C0001C460F4A7B699B0013445B889BB21A46CD
:1042D0000C4B104698470246124B11462046984711
:1042E00003461A460A4B1A607B6901337B617B697E
:1042F000312B7FF76CAF00BF1C37BD4690BD00BFB0
:104300004C170720017F0A00D1820A00F97E0A00BB
:1043100044170720E5820A0021830A00957D0A00E0
:10432000A97F0A00997D0A0090B587B000AF0346C7
:10433000FB80B7F906205C4B1046984703463B616B
:104340000023FB82A7E0FB8A584A32F823309BB255
:104350001A46554B104698470246554B3969104648
:1043600098470346002B0AD0FB8A504A9B0013440F
:104370005B889BB2BB604F4ABB6813608FE0FB8ACF
:104380004A4A32F823309BB21A46474B10469847A8
:104390000246494B3969104698470346002B62D0C4
:1043A000FB8A0133414A32F823309BB21A463E4B16
:1043B000104698470246414B3969104698470346D4
:1043C000002B50D0FB8A0133384A9B0013445B8892
:1043D0009BB21946FB8A354A9B0013445B889BB20B
:1043E000CA1AFB8A0133314931F823309BB218468F
:1043F000FB8A2E4931F823309BB2C31A92FBF3F2A9
:10440000294B104698470346FB60FB8A274A32F83F
:1044100023309BB21A46244B104698470246284B3D
:1044200011463869984703461A46264BF9681046E4
:10443000984703461C46FB8A1C4A9B0013445B8832
:104440009BB21A46184B1046984702461E4B11461F
:104450002046984703461A461C4B1046984702468A
:10446000144B1A601BE0FB8A104A32F823309BB2CF
:104470001A460D4B104698470246104B39691046B4
:1044800098470346002B03D00A4B0A221A6006E025
:10449000FB8A0133FB82FB8A0D2B7FF654AF00BFF2
:1044A0001C37BD4690BD00BF017F0A00B402072043
:1044B000D1820A0048170720E5820A0021830A00FA
:1044C000957D0A00A97F0A00997D0A0081830A0070
:1044D00080B400AF204B4FF4FA725A611E4B4FF478
:1044E000B9729A611C4B8722DA621B4B4FF4C87277
:1044F000DA63194B40F277121A66174B40F26D12CD
:104500001A66154B9622C3F88C20134B0022C3F871
:104510008820114B4FF4AF62C3F894200E4B4FF438
:104520006172C3F890200C4B4FF4AF625A670A4B8C
:104530004FF461721A67084B32221A66064B00224A
:104540005A66054B00225A63034BF0225A6500233A
:104550001846BD4680BC70471426072080B592B02F
:1045600000AF0346FB71042387F84730592387F8CF
:10457000463007F10C03322200211846CD4B9847F4
:10458000FB790E2B07D03B2B00F070840D2B00F035
:104590007E8300F070BCC84B1B7E002B00F068844B
:1045A000C54B1B79013B212B00F26D8301A252F810
:1045B00023F000BF3D460800734608001747080077
:1045C0003D470800874C0800874C0800874C0800CE
:1045D000874C0800874C0800874C0800874C08006F
:1045E000874C0800874C0800874C0800874C08005F
:1045F000874C0800874C0800A9470800874C080032
:10460000874C0800874C0800874C0800874C08003E
:10461000874C0800874C0800874C0800874C08002E
:10462000874C0800874C0800A9460800874C080002
:10463000CF460800F546080073470800162387F8A0
:10464000463001233B7307F10C0301331946012067
:104650009A4B9847034687F8473007F10C0197F8C3
:10466000463002221846964B9847034687F8473053
:104670000CE3162387F8463002233B7307F10C0343
:104680000133194602208D4B9847034687F847307F
:1046900007F10C0197F8463002221846884B9847DC
:1046A000034687F84730F1E2162387F84630202387
:1046B0003B7300237B7307F10C0197F8463002220D
:1046C00018467F4B9847034687F84730DEE21623AB
:1046D00087F8463021233B7300237B7307F10C01DD
:1046E00097F8463002221846754B9847034687F8DC
:1046F0004730CBE2162387F8463023233B7307F17C
:104700000C0197F84630022218466D4B9847034635
:1047100087F84730BAE2162387F8463003233B7305
:1047200000237B7307F10C0197F8463002221846EC
:10473000634B9847034687F84730A7E2162387F86C
:10474000463004233B7307F10C0301331946042060
:104750005A4B9847034687F8473007F10C0197F802
:10476000463002221846564B9847034687F8473092
:104770008CE2162387F8463022233B7307F10C03A3
:104780000133194604204D4B9847034687F84730BC
:1047900007F10C0197F8463002221846484B98471B
:1047A000034687F8473071E2162387F84630122314
:1047B0003B73414B5B79252B20D83F4B5B797B7357
:1047C0007B7B1A463F4B53F822303B6497F84030CE
:1047D000BB7397F84130FB7397F842303B7497F8FE
:1047E00043307B7407F10C0197F8463006221846D7
:1047F000334B9847034687F8473046E22E4B5B79A8
:104800002D2B00F242822C4B5B797B732A4B5B7918
:10481000263B072B00F2358201A252F823F000BF9D
:104820004148080041490800834C0800C948080075
:10483000B34908000D4C0800934B0800234A0800B8
:10484000204B5B693B6497F84030BB7397F841306D
:10485000FB7397F842303B7497F843307B74194BE5
:104860009B693B6497F84030BB7497F84130FB7408
:1048700097F842303B7597F843307B75114BDB6AF4
:104880003B6497F84030BB7597F84130FB7597F85B
:1048900042303B7697F843307B7607F10C0197F86E
:1048A00046300E221846064B9847034687F8473095
:1048B000E8E100BFFD840A005023072001B709008A
:1048C000D5CB090014260720CE4BD3F888303B64A3
:1048D00097F84030BB7397F84130FB7397F842303C
:1048E0003B7497F843307B74C64BD3F88C303B64F1
:1048F00097F84030BB7497F84130FB7497F842301A
:104900003B7597F843307B75BE4BD3F8A4303B64BE
:1049100097F84030BB7597F84130FB7597F84230F7
:104920003B7697F843307B7607F10C0197F84630D9
:104930000E221846B44B9847034687F84730A1E14A
:10494000B04B5B6E3B6497F84030BB7397F84130D7
:10495000FB7397F842303B7497F843307B74A94B54
:104960001B6E3B6497F84030BB7497F84130FB7482
:1049700097F842303B7597F843307B75A14B9B69A4
:104980003B6497F84030BB7597F84130FB7597F85A
:1049900042303B7697F843307B7607F10C0197F86D
:1049A00046300E221846984B9847034687F8473002
:1049B00068E1944B9B6E3B6497F84030BB7397F86B
:1049C0004130FB7397F842303B7497F843307B7467
:1049D0008C4BDB6E3B6497F84030BB7497F84130EA
:1049E000FB7497F842303B7597F843307B75C823CA
:1049F0003B6497F84030BB7597F84130FB7597F8EA
:104A000042303B7697F843307B7607F10C0197F8FC
:104A100046300E2218467C4B9847034687F84730AD
:104A200030E1784BDB6A3B6497F84030BB7397F812
:104A30004130FB7397F842303B7497F843307B74F6
:104A4000704B9B693B6497F84030BB7497F84130DA
:104A5000FB7497F842303B7597F843307B75694B90
:104A60005B693B6497F84030BB7597F84130FB7544
:104A700097F842303B7697F843307B76614B5B6B1F
:104A80003B6497F84030BB7697F84130FB7697F857
:104A900042303B7797F843307B775A4B1B6B3B6434
:104AA00097F84030BB7797F84130FB7797F8423062
:104AB00087F8203097F8433087F82130514B1B6D31
:104AC0003B6497F8403087F8223097F8413087F8F8
:104AD000233097F8423087F8243097F8433087F82E
:104AE0002530484BDB6D3B6497F8403087F8263023
:104AF00097F8413087F8273097F8423087F8283008
:104B000097F8433087F829303E4B5B6D3B6497F84C
:104B1000403087F82A3097F8413087F82B3097F8E3
:104B2000423087F82C3097F8433087F82D30354BDA
:104B3000DB693B6497F8403087F82E3097F84130B6
:104B400087F82F3097F8423087F8303097F84330A5
:104B500087F831302B4B9B6B3B6497F8403087F8DC
:104B6000323097F8413087F8333097F8423087F881
:104B7000343097F8433087F8353007F10C0197F857
:104B800046302A221846204B9847034687F847307C
:104B900078E01C4B1B6F3B6497F84030BB7397F871
:104BA0004130FB7397F842303B7497F843307B7485
:104BB000144B5B6F3B6497F84030BB7497F84130FF
:104BC000FB7497F842303B7597F843307B754FF490
:104BD000C8733B6497F84030BB7597F84130FB755C
:104BE00097F842303B7697F843307B7607F10C011B
:104BF00097F846300E221846034B9847034687F82D
:104C000047303FE014260720D5CB09009C4BD3F852
:104C100090303B6497F84030BB7397F84130FB739A
:104C200097F842303B7497F843307B74944BD3F839
:104C300094303B6497F84030BB7497F84130FB7474
:104C400097F842303B7597F843307B754FF4FA7311
:104C50003B6497F84030BB7597F84130FB7597F887
:104C600042303B7697F843307B7607F10C0197F89A
:104C700046300E221846834B9847034687F8473044
:104C800000E000BF01E000BFF2E000BFF0E07E4BBB
:104C90001B7E002B00F0EE807B4B1B79122B00D08B
:104CA000E3E0794B5B79252B18D8774B5B797B73E5
:104CB000754B9B7987F84030734BDB7987F841302F
:104CC000714B1B7A87F842306F4B5B7A87F8433021
:104CD0007B7B19463B6C6A4A42F821306A4B5B7910
:104CE000053B202B00F2BD8001A252F823F000BF4B
:104CF000754D08007D4D0800634E0800634E0800A6
:104D0000634E0800634E0800854D08008D4D080075
:104D10009D4D0800A54D0800634E0800634E080035
:104D2000634E0800634E0800634E0800634E08009F
:104D3000C74D0800634E0800634E0800CF4D0800C1
:104D4000DF4D0800EF4D0800FF4D08000F4E080032
:104D50001F4E0800634E0800634E0800634E0800B3
:104D6000634E08002F4E0800394E0800434E0800DD
:104D7000534E08003B6C424A536175E03B6C404A1D
:104D8000936171E03B6C3E4AD3626DE03B6C3F4AFD
:104D9000A2FB0323DB083A4A136365E03B6C384A05
:104DA000536361E03B6C9BB25B009AB2384B1A8054
:104DB000374B1B883B2B56D9354B1B880A339AB28D
:104DC000334B1A8050E03B6C2D4A53654CE03A6CF3
:104DD000304B1046984702462F4B9A6444E03A6C99
:104DE0002C4B1046984702462B4BDA643CE03A6C59
:104DF000284B104698470246274B5A6334E03A6CDA
:104E0000244B104698470246234B1A632CE03A6C19
:104E1000204B1046984702461F4B5A6124E03A6CDB
:104E20001C4B1046984702461B4B1A611CE03B6C1A
:104E30001AB2194B1A8017E03B6C1AB2164B5A8003
:104E400012E03A6C134B104698470246124BDA6058
:104E50000AE03A6C0F4B1046984702460E4B9A6098
:104E600002E000BF00E000BF00BF03E000BF02E0BF
:104E700000BF00E000BF002318464837BD4680BD94
:104E800014260720D5CB090050230720CDCCCCCC4D
:104E9000CC090720F97E0A004420072080B400AF27
:104EA0002C4B00221A602C4B00221A602B4B002244
:104EB0001A602B4B00221A602A4B00221A602A4BE0
:104EC00000221A70294B00221A70294B00221A80E6
:104ED000284B00221A80284B00221A80274B0022E0
:104EE0001A80274B00221A80264B00221A70264B6C
:104EF00001221A70254B00221A60254B00221A60ED
:104F0000244B4FF000021A60234B4FF000021A604E
:104F1000224B4FF000021A60214B4FF000021A6042
:104F2000204B4FF000021A601F4B4FF000021A6036
:104F30001E4B4FF000021A601D4B4FF000021A602A
:104F40001C4B4FF000021A6000231846BD4680BC7F
:104F5000704700BF181807201C18072020180720CA
:104F600024180720281807202C1807202D180720A0
:104F7000BC2007202E18072030180720B820072053
:104F8000BE200720321807203318072034180720C6
:104F900060180720381807203C1807204018072001
:104FA00044180720481807204C18072050180720DD
:104FB000541807205818072080B59AB000AF034650
:104FC000FB71002387F85730002387F867300023F0
:104FD00087F86630002387F85630002387F855306D
:104FE0000023A7F8643007F14C0300221A605A60CE
:104FF000592387F86330002387F84B300023A7F844
:10500000603007F1380300221A601A7107F1570265
:10501000FB7911461846BD4B9847034687F85F3029
:1050200097F85730113B4B2B00F2B38101A252F895
:1050300023F000BF93530800935308006551080004
:1050400093530800935308009353080093530800A8
:105050009353080093530800935308009353080098
:105060009353080073520800335208004B52080053
:1050700083510800C35108002952080073510800E9
:10508000935308007D510800935308009353080080
:105090009353080093530800935308009353080058
:1050A0009353080093530800935308009353080048
:1050B0009353080093530800935308009353080038
:1050C0009353080093530800935308009353080028
:1050D0009353080093530800935308009353080018
:1050E0009353080093530800935308009353080008
:1050F00093530800935308009353080093530800F8
:1051000093530800935308009353080093530800E7
:1051100093530800935308009353080093530800D7
:1051200093530800935308009353080093530800C7
:1051300093530800935308009353080093530800B7
:1051400093530800935308009353080093530800A7
:10515000935308009353080093530800B15208007A
:105160003953080002206A4B9847034687F85F309E
:105170001AE100210720674B984715E1664B9847D5
:1051800012E1664B1B7E002B00F00581634B1B79FF
:1051900087F83430614B5B7987F835305F4B9B790A
:1051A00087F836305D4BDB7987F83730BB8E1A468F
:1051B0005B4BDA615A4BDB6919460620554B984721
:1051C000E9E0564B1B7E002B00F0E780534B5B79E8
:1051D00087F83030514B9B7987F831304F4BDB7972
:1051E00087F832304D4B1B7A87F833304B4B1B79A5
:1051F000012B04D100210120464B9847CDE0474BBD
:105200001B79022B04D100210420424B9847C4E0B3
:10521000424B1B79002B40F0C080414BDB691946A3
:105220000B203C4B9847B8E000210920394B9847A8
:10523000BAE0002102203B4B9847012101203A4B64
:105240009847034687F85F30AEE000210420354BD5
:105250009847364B1B78042B03D101213F20344B58
:10526000984700210120304B9847034687F85F306C
:105270009AE02A4B1B7E002B00F09180274B1B7974
:1052800087F82C30254B5B7987F82D30234B9B79A1
:1052900087F82E30214BDB7987F82F30BB8D1946EC
:1052A0000120204B9847BB8D1A461D4BDA6576E0EE
:1052B0001B4BDB6BB3F5E17F73D8194BDB6B0A3308
:1052C000174AD363164BDB6B19460120154B9847E1
:1052D0000F2387F83830124BDB6B3B6497F8403074
:1052E00087F8393097F8413087F83A3097F84230EC
:1052F00087F83B3097F8433087F83C3007F13803A4
:10530000052219462A200B4B98474AE09D65080064
:10531000A52E080029470900B9B00900502307202D
:10532000142607205D3F0900E5290800141807200E
:10533000312C0800D5CB0900BA4BDB6B632B32D97B
:10534000B84BDB6B0A3BB74AD363B64BDB6B1946F2
:105350000120B54B98470F2387F83830B14BDB6BF2
:105360003B6497F8403087F8393097F8413087F838
:105370003A3097F8423087F83B3097F8433087F857
:105380003C3007F13803052219462A20A74B9847DD
:1053900009E000BF08E000BF06E000BF04E000BF76
:1053A00002E000BF00E000BF97F85730132B15D183
:1053B0000C209F4B9847034687F85F300E209C4B8C
:1053C0009847034687F85F300D20994B984703466E
:1053D00087F85F30974B1A78974B1A70954B1B786C
:1053E0000A2B01F2C58001A252F823F019540800DB
:1053F00071650800895608001D5708008D5908007E
:10540000155908005D620800935F08000D5F0800F1
:105410009D600800C760080097F85730023B142BC6
:1054200000F2298101A252F823F000BF8154080044
:10543000CF540800775608006556080077560800D4
:105440007756080077560800775608007756080008
:1054500077560800775608007756080077560800F8
:1054600077560800775608007756080077560800E8
:105470007756080077560800775608006B560800E4
:105480006E4B1B7E002B00F0F9806C4B1B79042BBC
:1054900000D01BE0162387F86330042387F84C30D4
:1054A00007F14C03013319460420654B9847034626
:1054B00087F85F3007F14C0197F8633002221846F5
:1054C0005A4B9847034687F85F3000BFD6E05B4BE6
:1054D0001B7E002B00F0D580584B5B7987F8283075
:1054E000564B9B7987F82930544BDB7987F82A3063
:1054F000524B1B7A87F82B30504B1B79053B202BE6
:1055000000F2AE8001A252F823F000BF61560800FD
:10551000615608006156080061560800615608008F
:10552000615608006156080061560800615608007F
:10553000615608006156080061560800615608006F
:10554000615608006156080061560800615608005F
:10555000615608006156080091550800A9550800D9
:10556000C1550800D1550800E1550800F155080063
:10557000615608006156080061560800615608002F
:10558000015608000B560800155608005156080031
:10559000BB6A2C4AA2FB0323DA082B4B1046984720
:1055A00002462A4B9A645CE0BB6A264AA2FB0323AC
:1055B000DA08254B104698470246244BDA6450E03F
:1055C000BA6A214B104698470246204B5A6348E07E
:1055D000BA6A1D4B1046984702461C4B1A6340E0BE
:1055E000BA6A194B104698470246184B5A6138E080
:1055F000BA6A154B104698470246144B1A6130E0C0
:10560000BB6A1AB2114B1A802BE0BB6A1AB20F4B5D
:105610005A8026E0BA6A0C4B1046984702460B4B5C
:10562000DA601EE0142607205D3F0900D5CB090093
:10563000D92A0800141807200E2607205023072017
:1056400001B70900CDCCCCCCF97E0A00442007205C
:10565000BA6AB94B104698470246B84B9A6000E0C8
:1056600000BF0EE0B64B98470CE0B64B9847034698
:1056700087F85F3006E000BF00F07DBF00BF00F09C
:105680007ABF00BF00F077BF97F85730062B02D0E3
:10569000122B08D040E0AC4B9847AC4B9847AC4B32
:1056A00009221A7038E0AB48AB4B98470023A7F8A3
:1056B0005C30B7F85C30002B06D1A84B00221A7082
:1056C000A34B03221A7026E007F1240300210A46A7
:1056D0001A800A469A70012387F82430012387F83C
:1056E0002530022387F826304F2387F863300A20BD
:1056F0009B4B984707F1240197F863300322184623
:10570000984B9847034687F85F308F4B98470021A6
:105710000420954B984700BF00F02DBF97F85730F5
:10572000062B02D0122B08D0F2E0874B9847874B0C
:105730009847874B09221A70EAE000237B8407F11F
:10574000220319460A20894B98477B8C002B40F096
:10575000D480082286491820824B9847854BDB6904
:10576000BB65BB6D19460B20834B9847834B98470D
:10577000002102207C4B984701210120804B984753
:10578000034687F85F30012124207D4B984703466C
:1057900087F85F3001212320794B9847034687F82B
:1057A0005F3001212620764B9847034687F85F300B
:1057B00001212520724B9847034687F85F3001216D
:1057C00015206F4B9847034687F85F30012116205C
:1057D0006B4B9847034687F85F3001211720684BD1
:1057E0009847034687F85F3001211820644B98479B
:1057F000034687F85F3001212720614B9847034615
:1058000087F85F30012128205D4B9847034687F8D1
:105810005F3001210C205A4B9847034687F85F30D0
:1058200001210D20564B9847034687F85F30012130
:105830000E20534B9847034687F85F30012105201F
:105840004F4B9847034687F85F30012106204C4BA9
:105850009847034687F85F3000210320484B98475C
:10586000034687F85F3000210420454B98470346E4
:1058700087F85F3000210720414B9847034687F89F
:105880005F30002108203E4B9847034687F85F3081
:10589000002129203A4B9847034687F85F300021C2
:1058A0002B20374B9847034687F85F3001212A2089
:1058B000334B9847034687F85F3001212C20304B4B
:1058C0009847034687F85F30002121202C4B9847EA
:1058D000034687F85F3001211320294B9847034680
:1058E00087F85F3001211420254B9847034687F83D
:1058F0005F30174B04221A7009E0134B98470021C0
:105900000420194B9847012121201E4B984700BFC6
:1059100000F031BE97F85730132B00D00AE01A4B35
:10592000984740F6C41101200F4B9847084B0422BA
:105930001A7000BF00F01FBEF97E0A004420072045
:10594000E57A0800697308008DAF0900556E0800FC
:10595000141807202D180720E98E08003218072098
:10596000A93E0900D5CB0900A96E090001FA08007B
:10597000749F0A001426072029470900A9AF0900CF
:10598000E5290800312C0800B173080097F857305A
:10599000023B252B00F2EE8501A252F823F000BF56
:1059A000675B0800B55B0800756508007565080051
:1059B000A95E0800BF5E0800CB5E0800D15E08004B
:1059C000756508007565080075650800756508004F
:1059D000756508007565080075650800FD5E0800BE
:1059E000855D0800B95D0800AF5D080075650800B9
:1059F000D75E0800E35E080075650800756508005D
:105A000075650800FD5E0800FD5E0800756508000C
:105A1000756508005B5B0800756508007565080022
:105A200075650800756508007565080075650800EE
:105A3000395A0800BD5A08000D20B44B98470E2073
:105A4000B34B98470F20B14B984700210220B14B30
:105A50009847B14B01221A7000211820AF4B98478C
:105A6000034687F85F3000211520AC4B984703466A
:105A700087F85F3000211620A84B9847034687F827
:105A80005F3000212720A54B9847034687F85F30F9
:105A900000212820A14B9847034687F85F3000215A
:105AA00041209E4B9847034687F85F3000214220F3
:105AB0009A4B9847034687F85F3026E20D20944BB7
:105AC00098470E20924B98470F20904B9847944B45
:105AD0005A6B944B10469847934B1A68934B114658
